:100000000C94F9000C9416010C9416010C94160132
:100010000C9416010C9416010C9416010C94160104
:100020000C9416010C9416010C9416010C941601F4
:100030000C9416010C9416010C9416010C941601E4
:100040000C9416010C9416010C94BD030C9416012B
:100050000C9416010C9416010C9416010C941601C4
:100060000C9416010C9416010C9416010C941601B4
:100070000C9416010C9416010C9416010C941601A4
:100080000C9416010C9416010C9416010C940B039D
:100090000C9416010C9416010C9416010C94160184
:1000A0000C9416010C9416010C9416010C94160174
:1000B0000C9416016E616E00696E660000407A1045
:1000C000F35A00A0724E18090010A5D4E80000E809
:1000D0007648170000E40B54020000CA9A3B000067
:1000E00000E1F505000080969800000040420F00F6
:1000F0000000A08601000000102700000000E803B7
:10010000000000006400000000000A000000000081
:100110000100000000002C76D888DC674F0823DF40
:10012000C1DFAE59E1B1B796E5E3E453C63AE65113
:10013000997696E8E6C28426EB898C9B62ED407C3A
:100140006FFCEFBC9C9F40F2BAA56FA5F490055AD6
:100150002AF75C936B6CF9676DC11BFCE0E40D47FB
:10016000FEF520E6B500D0ED902E0300943577051E
:100170000080841E080000204E0A000000C80C33D6
:100180003333330F986E12831141EF8D2114893B65
:10019000E65516CFFEE6DB18D1844B381BF77C1DE5
:1001A000901DA4BBE424203284725E228100C9F138
:1001B00024ECA1E53D274E414E494E495459494E44
:1001C00046CDCCCC3D0AD7233C17B7D13877CC2BC2
:1001D000329595E6241FB14F0A000020410000C867
:1001E0004200401C4620BCBE4CCA1B0E5AAEC59DE8
:1001F000740011241FBECFEFD8E0DEBFCDBF11E0E9
:10020000A0E0B1E0ECEDFAE102C005900D92AC3354
:10021000B107D9F721E0ACE3B1E001C01D92A63BE4
:10022000B207E1F70E94E9020C946C0D0C940000F7
:10023000FC01148E158E168E178E10A211A212A21A
:1002400013A210A611A612A613A614A615A616A6EA
:1002500017A610AA11AA12AA13AA08954F925F9284
:100260006F927F928F929F92AF92BF92CF92DF92C6
:10027000EF92FF920F931F93CF93DF93CDB7DEB72B
:1002800062970FB6F894DEBF0FBECDBF9A8B898BF5
:10029000CB01BA0128013901A90198010E941E046D
:1002A0006D837E838F839887A989BA892D913D912B
:1002B0004D915C910E94E80569877A878B879C87BE
:1002C000E989FA8964A375A386A397A380A091A066
:1002D000A2A0B3A0648175818681978120E030E07F
:1002E00040E05FE30E94E805A989BA895896CD905D
:1002F000DD90ED90FC905B97A70196010E94E805C8
:1003000069837A838B839C83E989FA8920A531A547
:1003100042A553A56D817E818F8198850E941F041F
:100320009B01AC0169817A818B819C810E94E805E7
:100330009B01AC01C501B4010E941F0469837A834B
:100340008B839C83A989BA8990966D937D938D93B5
:100350009C93939718966D917D918D919C911B978D
:100360009B01AC010E941F044B015C01E989FA89E1
:1003700024A535A546A557A5C301B2010E941E04B8
:100380009B01AC01C501B4010E94E8054B015C0171
:10039000A989BA891C966D917D918D919C911F9729
:1003A0009B01AC010E941F046D877E878F87988B0D
:1003B000A70196010E941E04E989FA89248D358DD2
:1003C000468D578D0E94E8059B01AC01C501B40123
:1003D0000E941F044B015C01B7FAB094B7F8B094C7
:1003E0002D853E854F855889C701B6010E941F049F
:1003F0009B01AC01C501B4010E9490044B015C015A
:10040000A989BA895C966D937D938D939C935F9730
:1004100029813A814B815C8169857A858B859C85B0
:100420000E941F049B01AC01C501B4010E941F047E
:100430006B017C01E989FA8960AB71AB82AB93AB4C
:1004400080889188A288B388A50194010E94E30561
:1004500018164CF4A989BA89D0968D929D92AD92C6
:10046000BC92D39716C0E989FA8984889588A688B2
:10047000B788A5019401C701B6010E948B048823A7
:1004800044F4A989BA89D0968D929D92AD92BC927E
:10049000D3978D819E81AF81B885E989FA8980A73C
:1004A00091A7A2A7B3A744A655A666A677A660A95A
:1004B00071A982A993A962960FB6F894DEBF0FBE08
:1004C000CDBFDF91CF911F910F91FF90EF90DF9003
:1004D000CF90BF90AF909F908F907F906F905F90E4
:1004E0004F90089584B1826084B983E8809380003E
:1004F00089E080938100089590938900809388001B
:10050000089510929000E1E9F0E010828CE396EFFC
:100510009093950080939400A1E7B0E08C91816066
:100520008C9380818360808380818B7F808308951A
:100530001092A000E1EAF0E0108280818760808361
:100540001092A5001092A40008959B01AC0160E8F0
:1005500074E88EE190E00E94D20921503109309375
:10056000C5002093C400E0ECF0E0808182608083CD
:10057000E1ECF0E080818B7F8083A2ECB0E08C9195
:1005800086608C938C918F738C938C918F7C8C93E1
:100590008C91877F8C93808188608083808180614B
:1005A000808380818068808308959091C00095FF4A
:1005B000FCCF8093C6000895CF93DF93EC0103C076
:1005C00021960E94D50288818111FACFDF91CF91C7
:1005D000089584B1806284B98AB1806C8AB98BB184
:1005E0008F738BB985B1807285B960E875E280E060
:1005F00090E00E94A5020E9472020E9481020E9465
:10060000980284EF91E00E947C0280E091E00E94D9
:1006100018017894FFCF1F920F920FB60F921124FA
:100620000F931F932F933F934F935F936F937F93FA
:100630008F939F93AF93BF93EF93FF93E4EAF0E020
:100640008081918190938101809380011182108239
:10065000609180017091810180E090E00E943105FD
:1006600020E030E040E752E40E94E80529E939E95A
:1006700049E95FE30E94900460934601709347014B
:1006800080934801909349012BED3FE049EC50E401
:100690000E94E80520E030E040E752E40E94900428
:1006A0008B019C0160933E0170933F018093400158
:1006B0009093410140914201509143016091440166
:1006C0007091450180E091E00E942E0120E030EC25
:1006D0004FE754E40E94E80523E333E34BEA50E498
:1006E0000E94900460937C0170937D0180937E0151
:1006F00090937F010E940205CB010E947C028091B1
:1007000041018F93809140018F9380913F018F939E
:1007100080913E018F9384E391E09F938F9382E8D1
:1007200091E09F938F930E94600B82E891E00E947A
:10073000DC028CE396EF909395008093940088B34D
:10074000816088BB8DB79EB708960FB6F8949EBFA0
:100750000FBE8DBFFF91EF91BF91AF919F918F9190
:100760007F916F915F914F913F912F911F910F91C9
:100770000F900FBE0F901F9018951F920F920FB6FB
:100780000F9211242F933F934F935F936F937F9317
:100790008F939F93AF93BF93EF93FF938091C60086
:1007A000843439F48BB180688BB98BB18F7B8BB972
:1007B00034C0893439F48BB180648BB98BB18F77B5
:1007C0008BB92BC08837D9F48AE491E00E942B0AB8
:1007D00060934201709343018093440190934501DB
:1007E00040913C0150913D0160E070E08AE491E06D
:1007F0000E94120B10923D0110923C010EC02091FC
:100800003C0130913D01F901E65BFE4F80832F5F93
:100810003F4F30933D0120933C01FF91EF91BF91F9
:10082000AF919F918F917F916F915F914F913F9188
:100830002F910F900FBE0F901F9018955058BB2707
:10084000AA270E9436040C94A9050E949B0538F043
:100850000E94A20520F039F49F3F19F426F40C946D
:1008600098050EF4E095E7FB0C949205E92F0E94A1
:10087000BA0558F3BA17620773078407950720F083
:1008800079F4A6F50C94DC050EF4E0950B2EBA2F46
:10089000A02D0B01B90190010C01CA01A001112486
:1008A000FF27591B99F0593F50F4503E68F11A1632
:1008B000F040A22F232F342F4427585FF3CF4695C3
:1008C00037952795A795F0405395C9F77EF41F16E5
:1008D000BA0B620B730B840BBAF09150A1F0FF0FAF
:1008E000BB1F661F771F881FC2F70EC0BA0F621F9B
:1008F000731F841F48F4879577956795B795F7958B
:100900009E3F08F0B0CF9395880F08F09927EE0F1F
:100910009795879508950E946E0508F481E00895E3
:100920000E94A4040C94A9050E94A20558F00E94FC
:100930009B0540F029F45F3F29F00C94920551117A
:100940000C94DD050C9498050E94BA0568F3992370
:10095000B1F3552391F3951B550BBB27AA276217BB
:100960007307840738F09F5F5F4F220F331F441FC8
:10097000AA1FA9F335D00E2E3AF0E0E832D09150FC
:100980005040E695001CCAF72BD0FE2F29D0660FE9
:10099000771F881FBB1F261737074807AB07B0E82C
:1009A00009F0BB0B802DBF01FF2793585F4F3AF032
:1009B0009E3F510578F00C9492050C94DD055F3F45
:1009C000E4F3983ED4F3869577956795B795F795B8
:1009D0009F5FC9F7880F911D9695879597F90895A0
:1009E000E1E0660F771F881FBB1F6217730784073C
:1009F000BA0720F0621B730B840BBA0BEE1F88F74B
:100A0000E09508950E94C20588F09F5798F0B92F8D
:100A10009927B751B0F0E1F0660F771F881F991F33
:100A20001AF0BA95C9F714C0B13091F00E94DC05F4
:100A3000B1E008950C94DC05672F782F8827B85F04
:100A400039F0B93FCCF3869577956795B395D9F78B
:100A50003EF490958095709561957F4F8F4F9F4F95
:100A60000895E89409C097FB3EF4909580957095A1
:100A700061957F4F8F4F9F4F9923A9F0F92F96E9EA
:100A8000BB279395F695879577956795B795F1115F
:100A9000F8CFFAF4BB0F11F460FF1BC06F5F7F4FFC
:100AA0008F4F9F4F16C0882311F096E911C077230E
:100AB00021F09EE8872F762F05C0662371F096E817
:100AC000862F70E060E02AF09A95660F771F881FE6
:100AD000DAF7880F9695879597F90895990F00088A
:100AE000550FAA0BE0E8FEEF16161706E807F90700
:100AF000C0F012161306E407F50798F0621B730B9B
:100B0000840B950B39F40A2661F0232B242B252B1B
:100B100021F408950A2609F4A140A6958FEF811DBE
:100B2000811D089597F99F6780E870E060E008955F
:100B30009FEF80EC089500240A94161617061806F5
:100B40000906089500240A941216130614060506D1
:100B50000895092E0394000C11F4882352F0BB0F62
:100B600040F4BF2B11F460FF04C06F5F7F4F8F4FC5
:100B70009F4F089557FD9058440F551F59F05F3F00
:100B800071F04795880F97FB991F61F09F3F79F0AF
:100B900087950895121613061406551FF2CF469531
:100BA000F1DF08C0161617061806991FF1CF8695B3
:100BB0007105610508940895E894BB276627772797
:100BC000CB0197F908950E946E0508F48FEF089500
:100BD0000E94FB050C94A9050E949B0538F00E9419
:100BE000A20520F0952311F00C9492050C94980521
:100BF00011240C94DD050E94BA0570F3959FC1F392
:100C0000950F50E0551F629FF001729FBB27F00DBA
:100C1000B11D639FAA27F00DB11DAA1F649F66270F
:100C2000B00DA11D661F829F2227B00DA11D621F5E
:100C3000739FB00DA11D621F839FA00D611D221F18
:100C4000749F3327A00D611D231F849F600D211DFC
:100C5000822F762F6A2F11249F5750409AF0F1F07F
:100C600088234AF0EE0FFF1FBB1F661F771F881FE8
:100C700091505040A9F79E3F510580F00C94920589
:100C80000C94DD055F3FE4F3983ED4F386957795A9
:100C90006795B795F795E7959F5FC1F7FE2B880F8E
:100CA000911D9695879597F90895A0E1B0E0EBE541
:100CB000F6E00C94F4097C011B016A01FC01178227
:100CC0001682838181FF44C39E012F5F3F4F39010C
:100CD000F7019381F10193FD859193FF81911F01AC
:100CE000882309F431C3853239F493FD859193FF4C
:100CF00081911F01853239F4B70190E00E94240BE5
:100D000056016501E5CF10E0512C912CFFE1F9155A
:100D1000D8F08B3279F038F4803279F08332A1F454
:100D2000F92DF0612EC08D3261F0803369F4292DE8
:100D300021602DC0392D3260932E892D8460982E2C
:100D40002AC0E92DE86015C097FC2DC020ED280FC2
:100D50002A3088F496FE06C03AE0139F200D112435
:100D6000122F19C08AE0589E200D1124522EE92D11
:100D7000E0629E2E10C08E3231F496FCE5C2F92D51
:100D8000F0649F2E08C08C3621F4292D2068922E05
:100D900002C0883641F4F10193FD859193FF819162
:100DA0001F018111B3CF9BEB980F933020F4992D45
:100DB0009061805E07C09BE9980F933008F066C190
:100DC000992D9F7E96FF16E09F73992E853619F414
:100DD0009064992E08C0863621F4392F3068932EFE
:100DE00002C01111115097FE07C01C3350F4442467
:100DF0004394410E27E00BC0183038F027E017E08D
:100E000005C027E09CE3492E02C0212F412C56014A
:100E100084E0A80EB11CF60160817181828193810A
:100E2000042DA3010E942F0A6C01F981FC87F0FFB9
:100E300002C0F3FF06C091FC06C092FE06C000E2AD
:100E400005C00DE203C00BE201C000E08C858C7090
:100E500019F001115AC29BC297FE10C04C0CFC85C0
:100E6000F4FF04C08A81813309F44A94141474F5A0
:100E700028E0241578F588E0482E2CC096FC2AC07E
:100E8000812F90E08C159D059CF03CEFC3163FEF41
:100E9000D30674F0892D8068982E0AC0E2E0F0E055
:100EA000EC0FFD1FE10FF11D8081803319F411500B
:100EB0001111F4CF97FE0EC044244394410E812FAC
:100EC00090E0C816D9062CF41C1904C0442443949D
:100ED00001C010E097FE06C01C141D0434F4C601C6
:100EE000019605C085E090E002C081E090E001112C
:100EF0000196112331F0212F30E02F5F3F4F820FF9
:100F0000931F252D30E08217930714F4581A01C05F
:100F1000512C892D897049F4552039F0B70180E2B0
:100F200090E00E94240B5A94F7CF002329F0B701D8
:100F3000802F90E00E94240B93FC09C0552039F0CB
:100F4000B70180E390E00E94240B5A94F7CF97FEFC
:100F50004CC04601D7FE02C0812C912CC6018819D5
:100F60009909F301E80FF91FFE87ED87960124190F
:100F70003109388B2F87012F10E011950195110948
:100F80003FEF8316930629F4B7018EE290E00E94AA
:100F9000240BC814D9044CF08F85988988159905BD
:100FA00024F4ED85FE85818101C080E3F1E08F1A94
:100FB00091082D853E852F5F3F4F3E872D878016F8
:100FC00091062CF0B70190E00E94240BD9CFC814F1
:100FD000D90441F49A81963320F4953319F43C8571
:100FE00034FF81E3B70190E04EC08A81813319F06C
:100FF0009C859F7E9C87B70190E00E94240B111175
:1010000005C094FC18C085E690E017C0B7018EE2D9
:1010100090E00E94240B1E5F82E001E0080FF301C4
:10102000E80FF11D8081B70190E00E94240B802F12
:101030000113F3CFE6CF85E490E0B7010E94240BC3
:10104000D7FC06C0C114D10441F4EC85E4FF05C00F
:10105000D194C194D1088DE201C08BE2B70190E038
:101060000E94240B80E32AE0C216D1042CF08F5F8B
:10107000FAE0CF1AD108F7CFB70190E00E94240B15
:10108000B701C601C0960E94240B54C1833631F0CB
:10109000833779F0833509F056C020C0560132E01D
:1010A000A30EB11CF6018081898301E010E0630189
:1010B00012C05601F2E0AF0EB11CF601C080D18023
:1010C00096FE03C0612F70E002C06FEF7FEFC60194
:1010D0000E94190B8C01F92DFF7714C0560122E0F4
:1010E000A20EB11CF601C080D18096FE03C0612F14
:1010F00070E002C06FEF7FEFC6010E94070B8C010A
:10110000F92DF0689F2EF3FD1AC0852D90E0081789
:101110001907A8F4B70180E290E00E94240B5A94CA
:10112000F4CFF60197FC859197FE81916F01B7018D
:1011300090E00E94240B51105A940150110901159E
:10114000110579F7F7C0843611F0893661F556013B
:1011500097FE09C024E0A20EB11CF60160817181E6
:10116000828193810AC0F2E0AF0EB11CF60160816A
:101170007181072E000C880B990BF92DFF769F2E9D
:1011800097FF09C090958095709561957F4F8F4F1F
:101190009F4FF0689F2E2AE030E0A3010E94820B4F
:1011A000C82EC6183FC0092D853721F40F7E2AE0CE
:1011B00030E01DC0097F8F3691F018F4883559F062
:1011C000C3C0803719F0883711F0BEC0006104FF3A
:1011D00009C0046007C094FE08C0066006C028E08D
:1011E00030E005C020E130E002C020E132E05601ED
:1011F00007FF09C084E0A80EB11CF601608171816F
:101200008281938108C0F2E0AF0EB11CF6016081CB
:10121000718180E090E0A3010E94820BC82EC61865
:101220000F77902E96FE0BC0092D0E7FC11650F43D
:1012300094FE0AC092FC08C0092D0E7E05C0DC2C6D
:10124000092D03C0DC2C01C0D12E04FF0DC0FE010E
:10125000EC0DF11D8081803311F4097E09C002FF7D
:1012600006C0D394D39404C0802F867809F0D39419
:1012700003FD11C000FF06C01C2DD51480F4150D10
:101280001D190DC0D51458F4B70180E290E00E94FA
:10129000240BD394F7CFD51410F45D1801C0512C52
:1012A00004FF10C0B70180E390E00E94240B02FF0E
:1012B00017C001FD03C088E790E002C088E590E018
:1012C000B7010CC0802F867859F001FF02C08BE275
:1012D00001C080E207FD8DE2B70190E00E94240B7F
:1012E000C11638F4B70180E390E00E94240B11503E
:1012F000F7CFCA94F301EC0DF11D8081B70190E0A6
:101300000E94240BC110F5CF15C0F4E0F51560F56F
:1013100084E0581A93FE1FC0011127C02C8523FFBB
:101320002AC004EB10E0392D3071932EF80184911E
:10133000811124C0552009F4E4CCB70180E290E08B
:101340000E94240B5A94F6CFF7018681978126C01C
:101350008FEF9FEF23C0B70180E290E00E94240B43
:101360005A945110F8CFD8CF512CB701802F90E06C
:101370000E94240BD3CF08EB10E0D5CF9110805200
:10138000B70190E00E94240B0F5F1F4FCFCF23E0E7
:10139000251510F483E0BDCF512CC0CF6096E2E15B
:1013A0000C94100AA1E21A2EAA1BBB1BFD010DC052
:1013B000AA1FBB1FEE1FFF1FA217B307E407F50705
:1013C00020F0A21BB30BE40BF50B661F771F881FE1
:1013D000991F1A9469F760957095809590959B0177
:1013E000AC01BD01CF0108952F923F924F925F92C1
:1013F0006F927F928F929F92AF92BF92CF92DF9225
:10140000EF92FF920F931F93CF93DF93CDB7DEB789
:10141000CA1BDB0B0FB6F894DEBF0FBECDBF09941D
:101420002A88398848885F846E847D848C849B8474
:10143000AA84B984C884DF80EE80FD800C811B8182
:10144000AA81B981CE0FD11D0FB6F894DEBF0FBEB1
:10145000CDBFED010895662777270C94E00B283067
:1014600008F027E03327DA01990F311D87FD9160DD
:1014700000966105710539F432602E5F3D9330E3CB
:101480002A95E1F708959F3F30F080387105610596
:1014900009F03C5F3C5F3D93913008F08068911DFE
:1014A000DF93CF931F930F93FF92EF92192F987FA3
:1014B0009695E92F96959695E90FFF27EA5EFE4FE0
:1014C00099273327EE24FF24A701E701059008940C
:1014D000079428F4360FE71EF81E491F511D660FAA
:1014E000771F881F991F0694A1F70590079428F489
:1014F000E70EF81E491F561FC11D770F881F991F41
:10150000661F0694A1F70590079428F4F80E491F6A
:10151000561FC71FD11D880F991F661F771F06947E
:10152000A1F70590079420F4490F561FC71FD81F35
:10153000990F661F771F881F0694A9F7849110954D
:10154000177041F0D695C79557954795F794E7944E
:101550001A95C1F7ECEBF0E0689415901591359170
:101560006591959105907FE27395E118F10A430B1F
:10157000560BC90BD009C0F7E10CF11E431F561FD3
:10158000C91FD01D7EF4703311F48A95E6CFE8941C
:10159000015030F0080F0AF40027021708F4202F3A
:1015A0002395022F7A3328F079E37D932A95E9F782
:1015B00010C07D932A9589F606949795679537957F
:1015C00017951794E118F10A430B560BC90BD00974
:1015D00098F023957E9173957A3308F070E37C93AD
:1015E0002013B8F77E9170617D9330F0839571E39D
:1015F0007D9370E32A95E1F71124EF90FF900F910E
:101600001F91CF91DF91992787FD90950895FC0157
:101610000590615070400110D8F7809590958E0F1D
:101620009F1F0895DC0101C06D9341505040E0F7C9
:101630000895FC016150704001900110D8F7809529
:1016400090958E0F9F1F08950F931F93CF93DF9355
:10165000FB01238121FD03C08FEF9FEF2CC022FFF0
:1016600016C046815781248135814217530744F4BF
:10167000A081B1819D012F5F3F4F318320838C93E7
:10168000268137812F5F3F4F3783268314C08B011C
:10169000EC01FB010084F185E02D0995892BE1F631
:1016A000D80116968D919C911797019617969C9349
:1016B0008E931697CE01DF91CF911F910F910895D0
:1016C000AEE0B0E0E6E6FBE00C94020A0D891E896C
:1016D00086E08C831A8309838FEF9FE79E838D8337
:1016E000AE01475E5F4F6F89788DCE0101960E94F3
:1016F0005506EF81F885E00FF11F10822E96E4E089
:101700000C941E0AFA01AA27283051F1203181F1E8
:10171000E8946F936E7F6E5F7F4F8F4F9F4FAF4FF9
:10172000B1E03ED0B4E03CD0670F781F891F9A1F0C
:10173000A11D680F791F8A1F911DA11D6A0F711DC0
:10174000811D911DA11D20D009F468943F912AE0CC
:10175000269F11243019305D3193DEF6CF010895B4
:10176000462F4770405D4193B3E00FD0C9F7F6CFE5
:10177000462F4F70405D4A3318F0495D31FD4052AD
:10178000419302D0A9F7EACFB4E0A6959795879543
:1017900077956795BA95C9F7009761057105089522
:1017A0009B01AC010A2E06945795479537952795CE
:1017B000BA95C9F7620F731F841F951FA01D089566
:1017C000A0E0B0E0E6EEFBE00C94FA09EC016B015E
:1017D0006115710519F0FB01918380837E01FFEF94
:1017E000EF1AFF0A0881802F90E00E942E0D892BAE
:1017F00011F0E701F3CF0D3239F47E0182E0E80EFB
:10180000F11C098111E008C00B3229F47E0192E03D
:10181000E90EF11C098110E0E701219743E050E057
:101820006EEB71E0CE010E94370D892BC1F4239637
:1018300045E050E069EB71E0CE010E94370D892B45
:1018400009F42596C114D10419F0F601D183C0839F
:101850001111F6C060E070E080E89FE7FAC043E055
:1018600050E066EB71E0CE010E94370D892B59F4F0
:10187000C114D10409F4E9C0F2E0EF0EF11CF60145
:10188000F182E082E2C020E030E0A901C0E0D0E0D7
:10189000F70180EDA82EA00E89E08A1530F1912F76
:1018A0009260B92E812F887012FF04C0811124C06C
:1018B000219622C081112197A5E0B0E00E94520D2F
:1018C000DC01CB01880F991FAA1FBB1F9C01AD0132
:1018D0002A0D311D411D511D283989E93807480756
:1018E00089E1580748F0166006C09EEFA9120AC0A9
:1018F00013FD40C01860B12E8FEFE81AF80A00817E
:101900001B2DC6CF802F8F7D8534A1F580818D3230
:1019100011F4106106C08B3221F0319661E070E065
:1019200004C08181329662E070E080538A3018F002
:10193000E61BF70B1FC060E070E060389CE07907A1
:101940005CF4DB01AA0FBB1FAA0FBB1F6A0F7B1F32
:10195000660F771F680F711D3196DF0111978C910B
:1019600080538A3050F314FF03C07195619571095B
:10197000C60FD71F11FF08C0C114D10429F0CF0131
:101980000197F60191838083CA01B9010E94310554
:10199000212F2370233019F04B015C0106C04B014D
:1019A0005C01B7FAB094B7F8B09420E030E0A90138
:1019B000C501B4010E948B04882309F43EC0D7FFFF
:1019C00006C0D195C195D10905ED11E002C00DEE1B
:1019D00011E06801F8E1CF1AD10890E2E92EF12C6C
:1019E000CE15DF0574F0F80125913591459154919C
:1019F000C501B4010E94E8054B015C01CE19DF0965
:101A0000EFCF04501109F594E7940C151D0541F72B
:101A10008A2D880F8B2D881F8F3F49F020E030E002
:101A2000A901C501B4010E948B04811106C082E2A4
:101A300090E09093B5018093B401C501B40109C051
:101A400060E070E080E89FEF04C060E070E080EC50
:101A50009FE7CDB7DEB7ECE00C94160A91110C9419
:101A60004F0D803219F089508550C8F70895FB0159
:101A7000DC014150504088F08D9181341CF08B3551
:101A80000CF4805E659161341CF06B350CF4605E83
:101A9000861B611171F3990B0895881BFCCF992760
:101AA000882708950E945D0DA59F900DB49F900D0D
:101AB000A49F800D911D11240895A29FB001B39F92
:101AC000C001A39F700D811D1124911DB29F700D47
:0C1AD000811D1124911D0895F894FFCF92
:101ADC004F90D83C2B30243F000000000000000049
:101AEC003333AB40000000000AD7233C0000000059
:101AFC0000000000000000000000000000000000DA
:0C1B0C0000000000252E32660A0D0000CB
:00000001FF
