S0160000456A656D706C6F335F5043494E542E7372656332
S11300000C9434000C9465000C947A000C94530006
S11300100C9446000C9446000C9446000C94460044
S11300200C9446000C9446000C9446000C94460034
S11300300C9446000C9446000C9446000C94460024
S11300400C9446000C9446000C9446000C94460014
S11300500C9446000C9446000C9446000C94460004
S11300600C9446000C94460011241FBECFEFD8E038
S1130070DEBFCDBF21E0A0E0B1E001C01D92A230FF
S1130080B207E1F70E948F000C94B9000C940000B1
S1130090E8E6F0E0808181608083EBE6F0E0808137
S11300A08068808308951F920F920FB60F921124D7
S11300B08F9381E0809300018BB381608BBB8F9120
S11300C00F900FBE0F901F9018951F920F920FB6AE
S11300D00F9211248F939F9395B181E0892785B95D
S11300E08CB381608CBB9F918F910F900FBE0F904A
S11300F01F9018951F920F920FB60F9211248F9391
S11301009F9395B180E2892785B98CB382608CBBBB
S11301109F918F910F900FBE0F901F901895F89498
S11301200E94480084B1806284B985B18F7D85B90D
S11301307894809100018823E1F31092010112C0A8
S113014095B180E2892785B92FEF81EE94E02150A3
S113015080409040E1F700C00000809101018F5F72
S113016080930101809101018A3050F310920001C3
S1090170E0CFF894FFCF7C
S9030000FC
