S0140000506C616E74696C6C615F4D532E7372656370
S11300000C945A000C946C000C946C000C946C00CE
S11300100C946C000C946C000C946C000C946C00AC
S11300200C946C000C946C000C946C000C946C009C
S11300300C946C000C946C000C946C000C946C008C
S11300400C946C000C946C000C946C000C946C007C
S11300500C946C000C946C000C946C000C946C006C
S11300600C946C000C946C000C946C000C946C005C
S11300700C946C000C946C000C946C000C946C004C
S11300800C946C000C946C000C946C000C946C003C
S11300900C946C000C946C000C946C000C946C002C
S11300A00C946C000C946C000C946C000C946C001C
S11300B00C946C0011241FBECFEFD8E0DEBFCDBF7F
S11300C021E0A0E0B1E001C01D92A030B207E1F749
S11300D00E9473000C9485000C94000095B180E29A
S11300E0892785B9089584B1806284B984B18F77F2
S11300F084B90E946E002FEF80E792E02150804087
S11101009040E1F700C00000F4CFF894FFCF68
S9030000FC
