S00D000067726162312E737265634A
S11300000C9434000C9451000C9451000C94510045
S11300100C9451000C9451000C9451000C94510018
S11300200C9451000C9451000C9451000C94510008
S11300300C9451000C9451000C9451000C945100F8
S11300400C9451000C9451000C9451000C945100E8
S11300500C9451000C9451000C9451000C945100D8
S11300600C9451000C94510011241FBECFEFD8E022
S1130070DEBFCDBF11E0A0E0B1E0E2E6F1E002C0F6
S113008005900D92A030B107D9F721E0A0E0B1E0CE
S113009001C01D92A030B207E1F70E9498000C94B1
S11300A0AF000C94000088E48093B8001092BC0068
S11300B0089584EA8093BC008091BC008823E4F70F
S11300C08091BC00887F883021F0803119F482E06F
S11300D0089581E008958E7F6170682BECEBF0E069
S11300E0608384E880838091BC008823E4F7809156
S11300F0BC00887F883121F0803419F482E00895AF
S113010081E00895ECEBF0E0808384E880838091C3
S1130110BC008823E4F78091BC00887F883209F40E
S113012081E00895ECEBF0E084E980838081089518
S11301300E9453000E94590060E08CE40E946B000E
S113014089EF0E9482000E9492002FEF85EA9EE0D0
S1130150215080409040E1F700C00000EBCFF894BC
S1050160FFCFCB
S9030000FC
