S0210000456A656D706C6F335F496E746572727570745F45787465726E2E7372656303
S11300000C9434000C945A000C946F000C94460029
S11300100C9446000C9446000C9446000C94460044
S11300200C9446000C9446000C9446000C94460034
S11300300C9446000C9446000C9446000C94460024
S11300400C9446000C9446000C9446000C94460014
S11300500C9446000C9446000C9446000C94460004
S11300600C9446000C94460011241FBECFEFD8E038
S1130070DEBFCDBF21E0A0E0B1E001C01D92A230FF
S1130080B207E1F70E9484000C94AE000C940000C7
S1130090E9E6F0E08081836080838DB381608DBB6D
S11300A080818860808380818B7F80838DB3826030
S11300B08DBB08951F920F920FB60F9211248F9348
S11300C09F9395B181E0892785B98CB381608CBBFE
S11300D09F918F910F900FBE0F901F9018951F92B4
S11300E00F920FB60F9211248F939F9395B180E2D4
S11300F0892785B98CB382608CBB9F918F910F90B7
S11301000FBE0F901F901895F8940E94480084B178
S1130110816284B985B18E7D85B97894809100011E
S11301208823E1F31092010114C095B180E289277C
S113013085B92FEF81EE94E0215080409040E1F7A3
S113014000C0000010920001809101018F5F809334
S11301500101809101018A3040F3E0CFF894FFCF90
S9030000FC
