S01E000054696D65725F6D6F646F54656D706F72697A61646F722E73726563F7
S11300000C9434000C9446000C9446000C94460066
S11300100C9446000C9446000C9446000C94460044
S11300200C9446000C9491000C9446000C944600E9
S11300300C9446000C9477000C9446000C944600F3
S11300400C9446000C9446000C9446000C94460014
S11300500C9446000C9446000C9446000C94460004
S11300600C9446000C94460011241FBECFEFD8E038
S1130070DEBFCDBF21E0A0E0B1E001C01D92A230FF
S1130080B207E1F70E94A6000C94C6000C9400008D
S1130090E0E8F0E080818C7F8083E1E8F0E080811B
S11300A0877E808388E59EE9909385008093840011
S11300B0AFE6B0E08C9181608C9380818360808313
S11300C080818B7F80830895E0EBF0E08081847FE2
S11300D0808382EB8093B200E0E7F0E0808181606E
S11300E08083E1EBF0E080818760808308951F9234
S11300F00F920FB60F9211248F939F9381E08093F8
S1130100010188E59EE9909385008093840086B37D
S1130110816086BB9F918F910F900FBE0F901F90AF
S113012018951F920F920FB60F9211248F9381E0AE
S11301308093000182EB8093B20087B3816087BB18
S11301408F910F900FBE0F901F9018950E9448003A
S11301500E94640087B1836087B988B18C7F88B9B5
S1130160789480910101882331F098B181E0892746
S113017088B91092010180910001882391F398B10C
S113018082E0892788B910920001EBCFF894FFCF61
S9030000FC
