S0140000456A656D706C6F325F4C43442E73726563E0
S11300000C9434000C9449000C9449000C9449005D
S11300100C9449000C9449000C9449000C94490038
S11300200C9449000C9449000C9449000C94490028
S11300300C9449000C9449000C9449000C94490018
S11300400C9449000C9449000C9449000C94490008
S11300500C9449000C9449000C9449000C944900F8
S11300600C9449000C94490011241FBECFEFD8E032
S1130070DEBFCDBF11E0A0E0B1E0EAE9F5E002C0E7
S113008005900D92AC33B107D9F70E946F020C941E
S1130090CB020C94000080FF04C095B1946095B924
S11300A003C095B19B7F95B981FF04C095B1986059
S11300B095B903C095B1977F95B982FF04C095B1F6
S11300C0906195B903C095B19F7E95B983FF04C033
S11300D085B1806285B9089585B18F7D85B908950C
S11300E095B19E7F95B995B1916095B90E944B00E9
S11300F08FE99FE00197F1F700C0000085B18E7F82
S113010085B9089584B18F6384B983E00E94700037
S113011083E00E94700083E00E94700082E00E94ED
S1130120700082E00E94700088E00E94700080E00D
S11301300E94700088E00E94700080E00E947000BD
S113014081E00E94700080E00E9470008DE00E94B7
S113015070000895CF9395B19D7F95B96130C9F032
S113016028F0623049F16330D1F14BC0C0E8C80FC8
S113017090E080589F4F959587959595879595958F
S11301808795959587950E9470008C2F0E9470002A
S113019038C0C0ECC80F90E080549F4F9595879568
S11301A09595879595958795959587950E94700067
S11301B08C2F0E94700025C0C4E9C80F90E08C56B3
S11301C09F4F959587959595879595958795959541
S11301D087950E9470008C2F0E94700012C0C4ED9D
S11301E0C80F90E08C529F4F95958795959587956C
S11301F095958795959587950E9470008C2F0E9400
S11302007000CF910895CF93C82F85B1826085B9CE
S11302108C2F82958F700E9470008C2F0E9470002A
S1130220CF910895CF93DF93EC0103C021960E94F0
S1130230030188818111FACFDF91CF9108958F92C4
S1130240AF92CF92DF92EF92FF920F931F93CF93CF
S1130250DF93CDB7DEB7D62E142FF22E823009F4F9
S113026062C0833009F4C4C0813009F01CC184E049
S11302700E94700080E00E94700085B1826085B9A0
S11302808D2D82958F700E9470008D2D0E947000BC
S1130290812F82958F700E947000812F0E947000C0
S11302A08F2D82958F700E9470008F2D0E94700098
S11302B0802F82958F700E947000802F0E947000A2
S11302C08E2D82958F700E9470008E2D0E9470007A
S11302D08C2D82958F700E9470008C2D0E9470006E
S11302E08A2D82958F700E9470008A2D0E94700062
S11302F0882D82958F700E947000882D0E94700056
S113030085B18D7F85B980E00E94700081E00E94F4
S113031070002FEF80E792E0215080409040E1F799
S113032000C00000C0C084E00E94700088E00E9409
S1130330700085B1826085B98D2D82958F700E9481
S113034070008D2D0E947000D12ED694D694D69430
S1130350D6948D2D0E947000812F0E9470008D2DE7
S11303600E947000812F0E9470008F2D82958F70E3
S11303700E9470008F2D0E947000802F82958F70D4
S11303800E947000802F0E9470008E2D82958F70C5
S11303900E9470008E2D0E9470008C2D82958F70AB
S11303A00E9470008C2D0E9470008A2D82958F709F
S11303B00E9470008A2D0E947000882D82958F7093
S11303C00E947000882D0E94700085B18D7F85B9D0
S11303D080E00E94700081E00E9470002FEF80E7AF
S11303E092E0215080409040E1F700C000005BC0E3
S11303F084E00E9470008FEF0E94700085B18260DB
S113040085B98D2D82958F700E9470008D2D0E946C
S11304107000812F82958F700E947000812F0E943E
S113042070008F2D82958F700E9470008F2D0E9416
S11304307000802F82958F700E947000802F0E9420
S113044070008E2D82958F700E9470008E2D0E94F8
S113045070008C2D82958F700E9470008C2D0E94EC
S113046070008A2D82958F700E9470008A2D0E94E0
S11304707000882D82958F700E947000882D0E94D4
S1130480700085B18D7F85B980E00E94700081E0A5
S11304900E9470002FEF80E792E02150804090404E
S11304A0E1F700C00000DF91CF911F910F91FF9001
S11304B0EF90DF90CF90AF908F900895CF93C82F97
S11304C085B1826085B980E00E9470008FEF8C0F47
S11304D00E94700085B18D7F85B9CF9108950E94E7
S11304E08200812CA12C6894CC24C2F80F2EFEE04B
S11304F0EF2EF02D0FE12FE14FE16AE081E00E9441
S11305001F010F2EFFE1CF2EF02D0EE02EE04EE066
S113051064E082E00E941F010F2EFAE08F2EF02D7E
S11305200F2EFAE0AF2EF02D6894CC24C2F8689414
S1130530EE24E2F80FE124E04EE06EE083E00E9456
S11305401F0160E080E00E94AA0080E091E00E9428
S1130550120182E00E945E0261E080E00E94AA0033
S113056084E191E00E94120181E00E945E0262E057
S113057080E00E94AA0081E291E00E94120183E0DF
S11305800E945E0263E080E00E94AA008DE291E096
S10D05900E941201FFCFF894FFCF80
S113059A4269656E7669646F7320616C2043757273
S11305AA736F200064652041565220656E204320F3
S11305BA00454D425320554E41432020004D55439A
S10F05CA4841532047524143494153002B
S9030000FC
