S0110000736F6C7563696F6E322E7372656375
S11300000C945A000C9477000C9477000C947700AD
S11300100C9477000C9477000C9477000C94770080
S11300200C9477000C9477000C9477000C94770070
S11300300C9477000C9477000C9477000C94770060
S11300400C9477000C9477000C9477000C94770050
S11300500C9477000C9477000C9477000C94770040
S11300600C9477000C9477000C9477000C94770030
S11300700C9477000C9477000C9477000C94770020
S11300800C9477000C9477000C9477000C94770010
S11300900C9477000C9477000C9477000C94770000
S11300A00C9477000C9477000C9477000C947700F0
S11300B00C94770011241FBECFEFD8E0DEBFCDBF74
S11300C011E0A0E0B1E0E6E8F8E002C005900D928E
S11300D0AA31B107D9F721E0AAE1B1E001C01D922C
S11300E0A232B207E1F70E94B9000C9441040C94C7
S11300F0000080E480937C00EAE7F0E08081876080
S113010080838FEF80937E000895EAE7F0E080819A
S1130110806880830895EAE7F0E080818F778083A8
S11301200895EAE7F0E080818064808308958091F7
S11301307A0086FB882780F90895ECE7F0E0908147
S1130140907F8F70892B808308950E949D000E9468
S113015085000E9491000E9497008111FCCF0E94AB
S11301608B00809178009091790008950E94060197
S113017008950E94B6000E94790080E00E94A500C4
S113018080931A0190931B019F938F938EE091E0CB
S11301909F938F930E9463012FEF89E698E121508A
S11301A080409040E1F700C000000F900F900F9046
S11301B00F90E3CFE4E6F0E080818E7F808310929D
S11301C07C0082E880937A0010927B0087E0809321
S11301D07E0080E0089588B18E7F88B988B18D7FD4
S11301E088B988B18B7F88B90E94DA0008958AB1F2
S11301F08E7F8AB98BB18E7F8BB98AB182608AB9BE
S11302008BB18D7F8BB90E94400108958DE380935B
S113021065008FEF8093640094B114B895B185B9EB
S113022097B1907897B998B19F6798B99AB11AB86D
S11302309BB18BB98DB1807F8DB98EB18F608EB932
S113024084B1806284B985B18F7D85B984B18F779B
S113025084B985B18F7785B940E060E881E690E0A4
S11302600E94390113BE15BE0E94EB000E94F700E4
S113027008952FB7F894FC01608340832FBF08953D
S1130280E4E6F0E080818D7F80831092C50087E6EC
S11302908093C4001092C00088E98093C10080E07C
S11302A091E090931F0180931E0180E00895909146
S11302B0C00095FFFCCF8093C60008950E945701AB
S11302C080E090E00895A0E0B0E0E9E6F1E00C946D
S11302D01A04AE014B5F5F4FFA0161917191AF0156
S11302E080911E0190911F010E947901E2E00C941B
S11302F03604ABE0B0E0EFE7F1E00C940A046C01E3
S11303007B018A01FC0117821682838181FFCCC1A3
S1130310CE0101963C01F6019381F70193FD85918D
S113032093FF81917F01882309F4BAC1853239F49E
S113033093FD859193FF81917F01853229F4B60164
S113034090E00E947003E7CF912C212C312CFFE127
S1130350F315D8F08B3279F038F4803279F08332A7
S1130360A1F4232D20611DC08D3261F0803369F426
S1130370232D216016C0832D8260382EE32DE46086
S11303803E2E2AC0F32DF8601DC037FC2DC020ED91
S1130390280F2A3040F08E32B9F436FC81C1232D67
S11303A02064322E19C036FE06C08AE0989E200DC5
S11303B01124922E11C0EAE02E9E200D1124222E2B
S11303C0F32DF0623F2E08C08C3621F4832D806813
S11303D0382E02C0883641F4F70193FD859193FFCE
S11303E081917F018111B3CF982F9F7D95549330D4
S11303F028F40C5F1F4F9FE399830DC0833631F0BF
S1130400833771F0833509F059C021C0F801808128
S113041089830E5F1F4F88248394912C530113C04A
S11304202801F2E04F0E511CF801A080B18036FE85
S113043003C0692D70E002C06FEF7FEFC5010E9419
S113044065034C018201F32DFF773F2E16C028016E
S113045022E0420E511CF801A080B18036FE03C098
S1130460692D70E002C06FEF7FEFC5010E945A034F
S11304704C01F32DF0683F2E820133FC1BC0822D0A
S113048090E088169906B0F4B60180E290E00E94EC
S113049070032A94F4CFF50137FC859137FE8191DE
S11304A05F01B60190E00E94700321102A9421E0BC
S11304B0821A91088114910471F7E8C0843611F00E
S11304C0893641F5F80137FE07C060817181828168
S11304D093810C5F1F4F08C060817181072E000C4F
S11304E0880B990B0E5F1F4FF32DFF763F2E97FF5E
S11304F009C090958095709561957F4F8F4F9F4F60
S1130500F0683F2E2AE030E0A3010E94AC03882E5D
S1130510861845C0853731F4232D2F7EB22E2AE06C
S113052030E025C0932D997FB92E8F36C1F018F491
S1130530883579F0B5C0803719F0883721F0B0C01C
S1130540E92FE061BE2EB4FE0DC0FB2DF460BF2E7A
S113055009C034FE0AC0292F2660B22E06C028E046
S113056030E005C020E130E002C020E132E0F801D3
S1130570B7FE07C060817181828193810C5F1F4F38
S113058006C06081718180E090E00E5F1F4FA3017F
S11305900E94AC03882E8618FB2DFF773F2E36FE73
S11305A00DC0232D2E7FA22E891458F434FE0BC0C7
S11305B032FC09C0832D8E7EA82E05C0B82CA32C36
S11305C003C0B82C01C0B92CA4FE0FC0FE01E80D75
S11305D0F11D8081803321F49A2D997EA92E09C0C2
S11305E0A2FE06C0B394B39404C08A2D867809F0A1
S11305F0B394A3FC11C0A0FE06C0B21488F4280C66
S1130600922C9B180EC0B21460F4B60180E290E004
S11306100E947003B394F7CFB21418F42B1802C0DD
S1130620982C212CA4FE10C0B60180E390E00E9417
S11306307003A2FE17C0A1FC03C088E790E002C0CB
S113064088E590E0B6010CC08A2D867859F0A1FEA9
S113065002C08BE201C080E2A7FC8DE2B60190E00B
S11306600E947003891438F4B60180E390E00E947C
S113067070039A94F7CF8A94F301E80DF11D8081F9
S1130680B60190E00E9470038110F5CF222009F496
S113069042CEB60180E290E00E9470032A94F6CF25
S11306A0F6018681978102C08FEF9FEF2B96E2E1DE
S11306B00C942604FC010590615070400110D8F799
S11306C0809590958E0F9F1F0895FC016150704096
S11306D001900110D8F7809590958E0F9F1F089573
S11306E00F931F93CF93DF93FB01238121FD03C05D
S11306F08FEF9FEF2CC022FF16C0468157812481C3
S113070035814217530744F4A081B1819D012F5FC5
S11307103F4F318320838C93268137812F5F3F4F56
S11307203783268314C08B01EC01FB010084F1851F
S1130730E02D0995892BE1F6D80116968D919C91AF
S11307401797019617969C938E931697CE01DF9177
S1130750CF911F910F910895FA01AA27283051F1E2
S1130760203181F1E8946F936E7F6E5F7F4F8F4FDE
S11307709F4FAF4FB1E03ED0B4E03CD0670F781F3D
S1130780891F9A1FA11D680F791F8A1F911DA11D22
S11307906A0F711D811D911DA11D20D009F468945B
S11307A03F912AE0269F11243019305D3193DEF603
S11307B0CF010895462F4770405D4193B3E00FD0B9
S11307C0C9F7F6CF462F4F70405D4A3318F0495DA4
S11307D031FD4052419302D0A9F7EACFB4E0A69587
S11307E09795879577956795BA95C9F700976105A9
S11307F0710508959B01AC010A2E069457954795FF
S113080037952795BA95C9F7620F731F841F951FF3
S1130810A01D08952F923F924F925F926F927F9204
S11308208F929F92AF92BF92CF92DF92EF92FF92FC
S11308300F931F93CF93DF93CDB7DEB7CA1BDB0BA8
S11308400FB6F894DEBF0FBECDBF09942A8839884D
S113085048885F846E847D848C849B84AA84B98454
S1130860C884DF80EE80FD800C811B81AA81B98160
S1130870CE0FD11D0FB6F894DEBF0FBECDBFED0174
S10908800895F894FFCF77
S113088600000002000000005E0100000000414478
S10D0896433A202575200D0A0000E6
S9030000FC
