S013000041746D656C5374617274322E73726563DE
S11300000C945A000C9477000C9477000C947700AD
S11300100C9477000C9477000C9477000C94770080
S11300200C9477000C9477000C9477000C94770070
S11300300C9477000C9477000C9477000C94770060
S11300400C9476010C9477000C9477000C94770050
S11300500C9477000C9477000C9477000C94770040
S11300600C9477000C9477000C9477000C94770030
S11300700C9477000C9477000C9477000C94770020
S11300800C9477000C9477000C9477000C94770010
S11300900C9477000C9477000C9477000C94770000
S11300A00C9477000C9477000C9477000C947700F0
S11300B00C94770011241FBECFEFD8E0DEBFCDBF74
S11300C011E0A0E0B1E0EAE1F9E002C005900D9290
S11300D0A831B107D9F721E0A8E1B1E001C01D9230
S11300E0A632B207E1F70E94A5000C948B040C948D
S11300F000000E942201089580911D018F5F80936A
S11301001D0180911D010E946F0180911801909141
S113011019010196909319018093180108950E9482
S11301206A018FE30E946F0180E00E946D01789460
S11301308CE790E00E94710180911801909119015F
S1130140883E9D4FC8F381E008950E94790080E0C5
S11301500E94DA0081E00E94F60080931E019093D1
S11301601F019F938F938EE091E09F938F930E9442
S1130170AD010E948F002FEF89E698E12150804065
S11301809040E1F700C000000F900F900F900F9087
S1130190DECFE4E6F0E080818E7F808310927C00E5
S11301A081E880937A0010927B0081E080937E0046
S11301B080E00895ECE7F0E09081907F9083908157
S11301C0892B8083EAE7F0E080818064808308954E
S11301D080917A00829581700895209178008091B1
S11301E0790090E0982F8827822B08950E94DA00E6
S11301F00E94E8008823E1F30E94ED00EAE7F0E0C2
S1130200208120612083089588B18E7F88B90E945F
S1130210C90008958AB180648AB98BB18F7B8BB988
S11302200E945F0108958AB18E7F8AB98BB18E7F57
S11302308BB98AB182608AB98BB18D7F8BB90E94E8
S11302408A0108958DE3809365008FEF80936400A5
S113025094B114B895B185B997B1907897B998B11C
S11302609F6798B99AB11AB89BB18BB98DB1807F49
S11302708DB98EB18F608EB984B1806284B985B135
S11302808F7D85B984B18F7784B985B18F7785B92E
S113029040E060E881E690E00E94580113BE15BE7C
S11302A078940E9404010E940A010E941301089597
S11302B02FB7F894FC01608340832FBF0895E4E6D0
S11302C0F0E080818F7D808381E084BD82E085BD04
S11302D080E0089584B584BD089586BD089587BDE2
S11302E0089590931C0180931B0108951F920F920F
S11302F00FB60F9211248F9385B3816085BB8091D3
S11303001A018F5F80931A018F910F900FBE0F9087
S11303101F901895E4E6F0E080818D7F8083109231
S1130320C50087E68093C4001092C00088E98093DA
S1130330C10080E091E0909323018093220180E04A
S113034008959091C00095FFFCCF8093C600089556
S11303500E94A10180E090E00895A0E0B0E0E3EB0A
S1130360F1E00C946404AE014B5F5F4FFA016191BC
S11303707191AF0180912201909123010E94C301E8
S1130380E2E00C948004ABE0B0E0E9ECF1E00C9422
S113039054046C017B018A01FC011782168283815B
S11303A081FFCCC1CE0101963C01F6019381F70196
S11303B093FD859193FF81917F01882309F4BAC14C
S11303C0853239F493FD859193FF81917F018532C4
S11303D029F4B60190E00E94BA03E7CF912C212CB6
S11303E0312CFFE1F315D8F08B3279F038F48032F8
S11303F079F08332A1F4232D20611DC08D3261F088
S1130400803369F4232D216016C0832D8260382E39
S1130410E32DE4603E2E2AC0F32DF8601DC037FCA6
S11304202DC020ED280F2A3040F08E32B9F436FC6E
S113043081C1232D2064322E19C036FE06C08AE005
S1130440989E200D1124922E11C0EAE02E9E200DBC
S11304501124222EF32DF0623F2E08C08C3621F495
S1130460832D8068382E02C0883641F4F70193FD4D
S1130470859193FF81917F018111B3CF982F9F7D47
S11304809554933028F40C5F1F4F9FE399830DC05C
S1130490833631F0833771F0833509F059C021C0B8
S11304A0F801808189830E5F1F4F88248394912CE7
S11304B0530113C02801F2E04F0E511CF801A08033
S11304C0B18036FE03C0692D70E002C06FEF7FEF8C
S11304D0C5010E94AF034C018201F32DFF773F2E2B
S11304E016C0280122E0420E511CF801A080B18000
S11304F036FE03C0692D70E002C06FEF7FEFC501C7
S11305000E94A4034C01F32DF0683F2E820133FCBA
S11305101BC0822D90E088169906B0F4B60180E2E3
S113052090E00E94BA032A94F4CFF50137FC859138
S113053037FE81915F01B60190E00E94BA03211059
S11305402A9421E0821A91088114910471F7E8C079
S1130550843611F0893641F5F80137FE07C0608111
S11305607181828193810C5F1F4F08C0608171810A
S1130570072E000C880B990B0E5F1F4FF32DFF768F
S11305803F2E97FF09C090958095709561957F4F98
S11305908F4F9F4FF0683F2E2AE030E0A3010E9466
S11305A0F603882E861845C0853731F4232D2F7E17
S11305B0B22E2AE030E025C0932D997FB92E8F36D4
S11305C0C1F018F4883579F0B5C0803719F0883750
S11305D021F0B0C0E92FE061BE2EB4FE0DC0FB2DAA
S11305E0F460BF2E09C034FE0AC0292F2660B22E43
S11305F006C028E030E005C020E130E002C020E180
S113060032E0F801B7FE07C0608171818281938175
S11306100C5F1F4F06C06081718180E090E00E5F27
S11306201F4FA3010E94F603882E8618FB2DFF7727
S11306303F2E36FE0DC0232D2E7FA22E891458F492
S113064034FE0BC032FC09C0832D8E7EA82E05C05B
S1130650B82CA32C03C0B82C01C0B92CA4FE0FC025
S1130660FE01E80DF11D8081803321F49A2D997EDD
S1130670A92E09C0A2FE06C0B394B39404C08A2D67
S1130680867809F0B394A3FC11C0A0FE06C0B2148E
S113069088F4280C922C9B180EC0B21460F4B60196
S11306A080E290E00E94BA03B394F7CFB21418F436
S11306B02B1802C0982C212CA4FE10C0B60180E394
S11306C090E00E94BA03A2FE17C0A1FC03C088E711
S11306D090E002C088E590E0B6010CC08A2D8678CF
S11306E059F0A1FE02C08BE201C080E2A7FC8DE2BA
S11306F0B60190E00E94BA03891438F4B60180E38D
S113070090E00E94BA039A94F7CF8A94F301E80D1B
S1130710F11D8081B60190E00E94BA038110F5CFEB
S1130720222009F442CEB60180E290E00E94BA038E
S11307302A94F6CFF6018681978102C08FEF9FEF4E
S11307402B96E2E10C947004FC010590615070401A
S11307500110D8F7809590958E0F9F1F0895FC0186
S11307606150704001900110D8F7809590958E0FDC
S11307709F1F08950F931F93CF93DF93FB01238152
S113078021FD03C08FEF9FEF2CC022FF16C04681CE
S11307905781248135814217530744F4A081B181E4
S11307A09D012F5F3F4F318320838C9326813781B6
S11307B02F5F3F4F3783268314C08B01EC01FB016D
S11307C00084F185E02D0995892BE1F6D801169670
S11307D08D919C911797019617969C938E931697DB
S11307E0CE01DF91CF911F910F910895FA01AA27AD
S11307F0283051F1203181F1E8946F936E7F6E5F60
S11308007F4F8F4F9F4FAF4FB1E03ED0B4E03CD00D
S1130810670F781F891F9A1FA11D680F791F8A1FF0
S1130820911DA11D6A0F711D811D911DA11D20D057
S113083009F468943F912AE0269F11243019305D11
S11308403193DEF6CF010895462F4770405D419302
S1130850B3E00FD0C9F7F6CF462F4F70405D4A334F
S113086018F0495D31FD4052419302D0A9F7EACF17
S1130870B4E0A6959795879577956795BA95C9F746
S113088000976105710508959B01AC010A2E069439
S11308905795479537952795BA95C9F7620F731FF2
S11308A0841F951FA01D08952F923F924F925F922F
S11308B06F927F928F929F92AF92BF92CF92DF926C
S11308C0EF92FF920F931F93CF93DF93CDB7DEB7D1
S11308D0CA1BDB0B0FB6F894DEBF0FBECDBF099465
S11308E02A88398848885F846E847D848C849B84BC
S11308F0AA84B984C884DF80EE80FD800C811B81CA
S1130900AA81B981CE0FD11D0FB6F894DEBF0FBEF8
S10D0910CDBFED010895F894FFCF68
S113091A0000000200000000A801000000002041BD
S10B092A44433A202575000046
S9030000FC
