:100000000C945A000C946F000C946F000C946F00C9
:100010000C946F000C946F000C94B0000C946F0063
:100020000C946F000C946F000C946F000C946F0094
:100030000C946F000C946F000C946F000C946F0084
:100040000C946F000C946F000C946F000C946F0074
:100050000C946F000C946F000C946F000C946F0064
:100060000C946F000C946F000C946F000C946F0054
:100070000C946F000C946F000C946F000C946F0044
:100080000C946F000C946F000C946F000C946F0034
:100090000C946F000C946F000C946F000C946F0024
:1000A0000C946F000C946F000C946F000C946F0014
:1000B0000C946F0011241FBECFEFD8E0DEBFCDBF80
:1000C00011E0A0E0B1E0EAEDF1E002C005900D9290
:1000D000A031B107D9F70E94DA000C94EB000C9420
:1000E0000000109264001092650013BE15BE80E0FF
:1000F000089580E284B917B882E08AB91DB815B8AE
:1001000018B81BB81EB813B816B819B81CB808959B
:1001100083E390E09093C5008093C4001092C000E8
:1001200088E08093C10086E08093C2001092C300F3
:100130000895E0ECF0E0908195FFFDCF8093C6003C
:100140000895CF93DF93EC018881882331F02196C5
:100150000E94990089918111FBCFDF91CF91089581
:100160001F920F920FB60F9211248F93EF93FF936C
:10017000E0E6F0E080818F778083FF91EF918F91AF
:100180000F900FBE0F901F90189510926400109260
:1001900065001092610013BE15BE80E008950E94B4
:1001A00079000E94C500109260000E9471000E94B8
:1001B000880008950E94CF001D9A80E091E00E947F
:1001C000A1002FEF84E39CE0215080409040E1F7B4
:0A01D00000C00000F1CFF894FFCF4B
:1001DA00484F4C4120415652206D63630A0D00007E
:02000004008278
:0300000042DF07D5
:00000001FF
