S01B0000456A656D706C6F5F457870616E736F725F494F2E7372656397
S11300000C945A000C9477000C9477000C947700AD
S11300100C9477000C9477000C9477000C94770080
S11300200C9477000C9477000C9477000C94770070
S11300300C9477000C9477000C9477000C94770060
S11300400C9477000C9477000C9477000C94770050
S11300500C9477000C9477000C9477000C94770040
S11300600C9477000C9477000C9477000C94770030
S11300700C9477000C9477000C9477000C94770020
S11300800C9477000C9477000C9477000C94770010
S11300900C9477000C9477000C9477000C94770000
S11300A00C9477000C9477000C9477000C947700F0
S11300B00C94770011241FBECFEFD8E0DEBFCDBF74
S11300C011E0A0E0B1E0E6E4F2E002C005900D9298
S11300D0AA30B107D9F721E0AAE0B1E001C01D922E
S11300E0AD30B207E1F70E94C4000C9421010C94D6
S11300F00000E9EBF0E080818C7F808388E48093CA
S1130100B8000895ECEBF0E08081846A80838091EC
S1130110BC008823E4F78091B900887F883021F0FF
S1130120803119F481E0089581E008958E7F617033
S1130130682B6093BB0084E88093BC008091BC0072
S11301408823E4F78091B900887F883121F08034D6
S113015019F481E0089581E008958093BB0084E858
S11301608093BC008091BC008823E4F78091B9009F
S1130170887F883209F481E00895ECEBF0E0808117
S113018084698083808108950E94790010920B0114
S113019052C00E94820060E086E40E949600E091D2
S11301A00B01F0E0E050FF4F80810E94AD001092FF
S11301B00A0136C00E94820060E08CE40E9496002E
S11301C0E0910A01F0E0E050FF4F80810E94AD0011
S11301D010920C011CC00E94820060E080E40E9426
S11301E09600E0910C01F0E0E050FF4F80810E9406
S11301F0AD002FEF80E792E0215080409040E1F77E
S113020000C0000080910C018F5F80930C018091ED
S11302100C018A3000F380910A018F5F80930A01F8
S113022080910A018A3030F20E94BD0080910B0156
S11302308F5F80930B0180910B018A3008F4A9CF62
S1090240A5CFF894FFCFE6
S10D0246C0F9A4B0999282F88090E8
S9030000FC
